:020000040800F2
:1000000010570020E9020008FD31000859280008B7
:1000100035300008DF060008093A0008000000003B
:10002000000000000000000000000000290200089D
:10003000C50700080000000085020008053400081C
:100040000303000803030008030300080303000878
:100050000303000803030008030300080303000868
:100060000303000803030008030300080303000858
:10007000030300080303000803030008090700083E
:100080001507000803030008030300080303000822
:10009000E106000803030008030300080303000847
:1000A00003030008C5340008030300080303000825
:1000B0000303000803030008030300080303000808
:1000C00003030008030300080303000803030008F8
:1000D0000303000803030008FD39000803030008B8
:1000E00003030008030300080303000803030008D8
:1000F00003030008030300080303000803030008C8
:1001000003030008030300080303000803030008B7
:1001100003030008030300080303000803030008A7
:100120000303000803030008030300080303000897
:1001300003030008000000000000000003030008A3
:100140000303000803030008030300080303000877
:100150000303000803030008030300080303000867
:100160000303000803030008030300080303000857
:100170000303000803030008000000000000000063
:10018000030300080303000800F002F800F03CF845
:100190000AA090E8000C82448344AAF10107DA45E2
:1001A00001D100F031F8AFF2090EBAE80F0013F0F8
:1001B000010F18BFFB1A43F001031847AC9500006C
:1001C000CC950000103A24BF78C878C1FAD85207FD
:1001D00024BF30C830C144BF04680C6070470000C1
:1001E0000023002400250026103A28BF78C1FBD840
:1001F000520728BF30C148BF0B6070471FB508F0D9
:10020000B0FB1FBD10B510BD00F034FA1146FFF76A
:10021000F5FF05F0C9F900F052FA03B4FFF7F2FF59
:1002200003BC00F055FA00002C4B19680868B0E8D0
:10023000F04F80F30988BFF36F8F4FF0000080F319
:10024000118870470000000008480068006880F3CB
:1002500008884FF0000080F3148862B661B6BFF3DF
:100260004F8FBFF36F8F00DF00BF00BF08ED00E0CE
:10027000DFF80C00016841F470010160704700BFB5
:1002800088ED00E0EFF30980BFF36F8F134B1A681E
:100290001EF0100F08BF20ED108A20E9F04F10600B
:1002A00009B44FF0500080F31188BFF34F8FBFF3B4
:1002B0006F8F07F069F84FF0000080F3118809BCD8
:1002C00019680868B0E8F04F1EF0100F08BFB0ECD6
:1002D000108A80F30988BFF36F8F70471C000020DD
:1002E000EFF3058070470000094880470948004740
:1002F000FEE7FEE7FEE7FEE7FEE7FEE7FEE7FEE7D6
:10030000FEE7FEE704480549054A064B7047000032
:10031000B534000889010008105100201057002052
:10032000105300201053002053EA020C00F06980A3
:100330002DE9F04B4FF00006002B1FBFB3FA83F5F9
:1003400003FA05F424FA05F65E4012BF1643B2FA2A
:1003500082F502FA05F4C5F120051EBF22FA05FC5C
:1003600044EA0C04203556EA044C4FEA144418BF02
:10037000641C4FF000084FF00009904271EB030C31
:1003800039D3002919BFB1FA81F701FA07F6B0FA9B
:1003900080F700FA07F6C7F120071EBF20FA07FC16
:1003A00046EA0C062037B6FBF4FCA7EB0507103F26
:1003B00007F01F0BCBF120060CFA0BFB2CFA06F60C
:1003C00044BFB3460026202FA4BF5E464FF0000B6B
:1003D0005BEA060C08BF4FF0010B19EB0B09ABFBF6
:1003E000027C48EB0608C01B06FB02CC0BFB03CCCF
:1003F00071EB0C01C1E70B46024641464846BDE899
:10040000F08B13B54FF000004FF00001AFF3008008
:10041000BDE81C40704710B54C1084EA530404D565
:100420004042C1F1000138BF491E1B4204D552426F
:10043000C3F1000338BF5B1EFFF776FF14F0804F57
:1004400004D04042C1F1000138BF491E14F0004FF2
:1004500004D05242C3F1000338BF5B1E10BD40EA16
:10046000010310B59B070FD1042A0DD310C808C98A
:10047000121F9C42F8D020BA19BA884201D9012033
:1004800010BD4FF0FF3010BD1AB1D30703D0521C7E
:1004900007E0002010BD10F8013B11F8014B1B1BB9
:1004A00007D110F8013B11F8014B1B1B01D1921E23
:1004B000F1D1184610BD032A40F2308010F0030C31
:1004C00000F0158011F8013BBCF1020F624498BFA7
:1004D00011F801CB00F8013B38BF11F8013BA2F144
:1004E000040298BF00F801CB38BF00F8013B11F0BF
:1004F000030300F02580083AC0F0088051F8043B5F
:10050000083A51F804CBA0E80810F5E7121D5CBFCB
:1005100051F8043B40F8043BAFF30080D20724BFFE
:1005200011F8013B11F801CB48BF11F8012B24BF92
:1005300000F8013B00F801CB48BF00F8012B7047E1
:1005400010B5203AC0F00B80B1E81850203AA0E86E
:100550001850B1E81850A0E81850BFF4F5AF5FEAA2
:10056000027C24BFB1E81850A0E8185044BF18C955
:1005700018C0BDE810405FEA827C24BF51F8043BFC
:1005800040F8043B08BF7047D20728BF31F8023B50
:1005900048BF11F8012B28BF20F8023B48BF00F8E4
:1005A000012B704702F0FF0343EA032242EA0242B2
:1005B00000F037B84FF0000200B513469446964657
:1005C000203922BFA0E80C50A0E80C50B1F1200166
:1005D000BFF4F7AF090728BFA0E80C5048BF0CC014
:1005E0005DF804EB890028BF40F8042B08BF704772
:1005F00048BF20F8022B11F0804F18BF00F8012BE4
:10060000704770477047704710B500F02BF80068CE
:1006100010BD10B5044600F025F8046010BD4FF081
:1006200000020429C0F0128010F0030C3FF4C4AFA4
:10063000CCF1040CBCF1020F18BF00F8012BA8BFCD
:1006400020F8022BA1EB0C01FFF7B6BF5FEAC17CDB
:1006500024BF00F8012B00F8012B48BF00F8012B44
:100660007047000000487047AC50002000487047B9
:10067000AC5000207546FFF7F9FFAE46050069460D
:10068000534620F00700854618B020B5FFF73AFE24
:10069000BDE820404FF000064FF000074FF0000883
:1006A0004FF0000B21F00701AC46ACE8C009ACE804
:1006B000C009ACE8C009ACE8C0098D46704710B568
:1006C0000446AFF300802046BDE81040FFF7A5BD0B
:1006D00001491820ABBEFEE7260002007047FEE786
:1006E000014800F0EEB90000F00000201CB5CDE993
:1006F00000230B46024640F2FF11024802F0FAFCCA
:100700001CBD0000F0000020014800F03FBC0000CC
:10071000FC010020014800F039BC00005C02002010
:1007200001681823CAB2103AB2FBF3F2054B6FF31B
:100730000901032A9B5CC36500D9091D8165084630
:1007400070470000E489000810B5014600208B695D
:100750008A6A4FF0C07453B1B3F5005F15D072B11F
:10076000012A0CD0022A0AD0032A09D104E01AB1C6
:10077000012A06D0022A03D1C96AC90100D5012085
:1007800010BDC96AA142FAD010BD002AF7D0012AD3
:10079000F2D0022AF3D0032AF3D010BD30B504689A
:1007A000256825F480252560046863608368402BF4
:1007B000036803D099600068C26030BD9A60006829
:1007C000C16030BD704772B6FEE790F82020012A64
:1007D00007D0022A05D0416A41F4802141620120FC
:1007E0007047006842690A43426100207047F0B5D3
:1007F00090F820500468A468012D05D0022D03D084
:10080000416A41F4802157E014F0406F01D1E500C6
:100810004FD5C4F301640125A5401D608D684FF4D8
:10082000C0739DB1CE6835434E6845EAC60506687B
:1008300003EB0417F5514FF4C275076805EB041577
:100840000E697E51097D012905D009E00E88CD6829
:1008500045EA4655EBE701684E5946F480764E511D
:100860001179D579567941EA056195792D0445EAE2
:10087000062529434FF4C676056806EB0416A951F0
:100880001178D57841EA0561957852782D0445EACA
:10089000022211434FF4C475026805EB041551514F
:1008A000006803EB0411425842F00102425000205C
:1008B000F0BD416A41F4001141620120F0BD000029
:1008C00010B590F82020012A07D0022A05D0416AED
:1008D00041F480214162012010BD3B48D0F8002244
:1008E00042F00102C0F80022D0F8002222F47C522B
:1008F000C0F80022D0F800224B6A42EA0322C0F876
:1009000000220A7D02F01F0301229A40D0F81C3217
:100910009343C0F81C32CB69B3B9D0F80C3293437F
:10092000C0F80C328C894B6864F31F434C6900EBB0
:10093000C404C4F840320C890B6864F31F434C694B
:1009400000EBC404C4F84432CB69012B16D1D0F8B3
:100950000C321343C0F80C320C884B6864F31F430D
:100960004C6900EBC404C4F840320C89CB6864F3D2
:100970001F434C6900EBC404C4F844328B69002B5C
:10098000D0F804320ED01343C0F804320B69002BA8
:10099000D0F8143208D01343C0F81432096A012980
:1009A00004D008E09343EFE79343F5E7D0F81C1237
:1009B0001143C0F81C12D0F8001221F00101C0F858
:1009C0000012002010BD000000640040704770B5A8
:1009D00090F82040012C05D0022C03D0416A41F44C
:1009E000802128E0046809B32469A40720D04FF4CB
:1009F000D874056804EB01142D5915F004059560B1
:100A000005682D591AD0ED08556005682C5904F079
:100A10000204D4604FF4DA74056804EB01142E5913
:100A200006F00F06082E0CD308250DE0E468DCE77D
:100A3000416A41F400114162012070BD6D0D1560E5
:100A4000E3E72D5905F00F05156105682D59C5F32C
:100A50000725956105682C59240C54614FF4DC720C
:100A6000046802EB0112A4581C700468A458240AFC
:100A70005C700468A458240C9C700468A258120E80
:100A8000DA704FF4DE72046802EB0112A4581C7194
:100A90000468A458240A5C710468A458240C9C714E
:100AA0000468A258120EDA71006829B1016941F098
:100AB00020010161002070BDC16841F02001C160CA
:100AC000F8E72DE9F05F0546006800244669D0F894
:100AD00004908768D0F80CB0D0F810A0D0F8188037
:100AE000F10748D0F90714D001218160B80703D578
:100AF000284600F0EAF90CE0780702D54FF40064CC
:100B000007E0380702D54FF4805402E0284600F091
:100B1000DBF9F80516D529684FF480708860B805B0
:100B200003D5284600F0D3F90CE0780502D544F44B
:100B3000005407E0380502D544F4804402E028461A
:100B400000F0C4F9F80316D529684FF480308860A6
:100B5000B80303D5284600F0BCF90CE0780302D5B1
:100B600044F4004407E0380302D544F4803402E042
:100B7000284600F0ADF9300707D55FEACB6004D511
:100B80002968102044F40074C86070074FF008070B
:100B900007D55FEA0B7004D52868C760284600F0C7
:100BA00059F9B00706D52868C068800702D02846E2
:100BB00000F052F9700607D55FEACA6004D52968CB
:100BC000102044F480640861B00607D55FEA0A701B
:100BD00004D528680761284600F046F9F00606D5D6
:100BE00028680069800702D0284600F03EF9B0036B
:100BF00008D55FEAC96005D52968102048602846F5
:100C000000F034F9F00307D55FEA097004D52868CD
:100C10004760284600F05EF9300446D55FEA497027
:100C200040D5F00504D55FEAC87001D044F0010456
:100C3000B00504D55FEA887001D544F00204700560
:100C400004D55FEA487001D544F00404300529D585
:100C500018F0700F26D008F07000402815D006DC80
:100C6000102809D020280AD0302816D10AE05028B0
:100C70000ED0602811D10EE044F008040DE044F0DD
:100C800010040AE044F0200407E044F0400404E0CB
:100C900044F0800401E044F480742868816921F004
:100CA00070018161296804204860002C05D0686AC1
:100CB000204368622846FFF789FEBDE8F09F70B5C3
:100CC000040003D094F8200010B104E0012070BDAE
:100CD000204600F081F82068016841F001010160C0
:100CE00000F0D0FB0546052604E000F0CBFB401BDE
:100CF0000A2811D820684068C007F6D0206801682B
:100D000021F00201016000F0BDFB05460BE000F0A0
:100D1000B9FB401B0A2806D9606A40F400306062C3
:100D200084F82060D2E7206840688007EFD4207EF6
:100D30000128206801683DD021F080010160607EBB
:100D400001282068016838D021F040010160A07EB0
:100D500001282068016833D021F020010160E07E85
:100D60000128206801682ED041F010010160207F29
:100D700001282068016829D021F008010160607F06
:100D800001282068016824D021F004010160D4E921
:100D900002010843D4E90412114308436168491E63
:100DA00008432168C86100206062012084F82000A7
:100DB000002070BD41F08001C0E741F04001C5E76F
:100DC00041F02001CAE721F01001CFE741F008010E
:100DD000D4E741F00401D9E710B586B004461421E8
:100DE0006846FFF7E7FB18492068884229D1174871
:100DF0000021026842F000720260006800F000709A
:100E0000059012481038026842F001020260006842
:100E100000F0010005904FF4C05000900220CDE991
:100E2000010103200390092004906946084800F05E
:100E300031FA00220521142000F04EFE142000F0AB
:100E40003DFE06B010BD0000006400404038024086
:100E500000000240704700000249884201D102F0C0
:100E600039B97047F00000207047704770470000A4
:100E700070B5044690F82000012804D0606A40F460
:100E80000020606218E0022084F8200020680168D9
:100E900021F00101016000F0F5FA05460EE000BF07
:100EA00000F0F0FA401B0A2808D9606A40F40030CC
:100EB0006062052084F82000012070BD2068406831
:100EC000C007EDD1606270BD7047704770477047D2
:100ED0007047704770472DE9F0410446876D00F078
:100EE000D1FA064694F835000025022806D0802065
:100EF000606584F834500120BDE8F0812068016805
:100F000021F0160101602068416921F080014161F2
:100F1000206C08B9A06C20B12068016821F008019C
:100F200001602068016821F0010101600CE000F01F
:100F3000A9FA801B052807D920206065032084F8C2
:100F4000350084F83450D7E720680068C007EED138
:100F500094F85C103F208840B860012084F8350088
:100F600084F834500020C7E790F83510022903D0E8
:100F70008021416501207047052180F83510006807
:100F8000016821F001010160002070472DE9F8435C
:100F900004464FF00009CDF8009063484FF4165115
:100FA000A56D0068B0FBF1F72E6894F85C1008207E
:100FB00000FA01F131420FD021680A6852070BD5BF
:100FC0000A6822F004020A6094F85C108840A86065
:100FD000606D40F00100606594F85C104FF001080E
:100FE00008FA01F0304208D021684969090604D5A1
:100FF000A860606D40F00200606594F85C10042009
:101000008840304208D021680968890704D5A86063
:10101000606D40F00400606594F85C10102088401A
:10102000304218D021680968090714D5A8602068E3
:101030000168490304D50068000308D5A16C07E0E6
:101040000168C90503D4016821F008010160216C21
:1010500009B12046884794F85C102020884030422F
:1010600031D021680968C9062DD5A86094F83500EB
:1010700005282068016806D0490347D500680003A9
:101080001DD4616C1CE021F01601016020684169EB
:1010900021F080014161206C08B9A06C20B120686A
:1010A000016821F00801016094F85C103F2088403D
:1010B000A86084F8358084F83490216D1FE0E16BDE
:1010C00009B120468847606D00282BD0606DC007AD
:1010D00014D0052084F835002068016821F0010152
:1010E00001600098401C0090B84203D82068006856
:1010F000C007F6D184F8358084F83490E16C00297B
:1011000010D001B02046BDE8F04308470168C9058A
:10111000D5D4016821F01001016084F8358084F88D
:101120003490CCE7BDE8F883180000202DE9F041A9
:10113000044600F0A7F906465CB1022084F83500A9
:10114000002584F834502068016821F00101016015
:101150000DE00120BDE8F08100F094F9801B052826
:1011600005D920206065032084F83500F2E7206867
:101170000068C007F0D12268116820480140D4E916
:1011800001031843D4E90336334318436369184312
:10119000A3691843E3691843236A18430843616A43
:1011A000042903D1D4E90B131943084310602068C4
:1011B0004069666A20F0070130460E430127042883
:1011C0000CD1A06A0643E06A40B12046FFF7BCFAA2
:1011D00020B14020606584F83570BAE72068466128
:1011E0002046FFF79DFA94F85C203F2191408160F2
:1011F000656584F835700020ACE700003F8010F092
:101200002DE9F0410446866D90F834000025012850
:101210000DD0012084F8340094F835700020012F9F
:1012200007D084F8340002252846BDE8F08102206A
:10123000FBE7022784F8357060652046FFF7AEFAB9
:1012400094F85C103F208840B0602068016841F04D
:1012500016010160206C20B12068016841F008018E
:1012600001602068016841F001010160DCE70000D5
:1012700070B5044600F006F90546601C02D004482B
:101280000078044400F0FEF8401BA042FAD370BD81
:101290000C0000202DE9F84FDFF8BCA10022012549
:1012A00003264FF00F090AF1040BAAF1040E00BF48
:1012B0000B6805FA02F42340A34270D10F7907F0BE
:1012C0000307012F01D0022F16D187684FEA420889
:1012D00006FA08FC27EA0C07D1F80CC00CFA08FC47
:1012E0004CEA070CC0F808C04768A7430C79C4F360
:1012F000001494403C4344600C79E443A4070AD0B2
:10130000C4684FEA420C06FA0CF7BC438F6807FA30
:101310000CF72743C7600C7904F00304022C12D1A8
:10132000D40800EB840CDCF820405707FF0E09FAC4
:1013300007F824EA0804D1F8108008FA07F848EA08
:101340000408CCF8208004684FEA420C06FA0CF737
:10135000BC430F7907F0030707FA0CF72743076030
:101360004C6814F4403F70D03C4C276847F48047E9
:101370002760246822F0030704F480440094384C6A
:1013800007EB040CDCF8084897074FEA177809FACE
:1013900008F7BC43334FB84202D1002724E054E0A1
:1013A000314FB84201D101271EE0304FB84201D180
:1013B000022719E02E4FB84201D1032714E02D4F28
:1013C000B84201D104270FE02B4FB84201D10527C5
:1013D0000AE02A4FB84201D1062705E0284FB8425B
:1013E00001D1072700E0082707FA08F72743CCF8C0
:1013F0000878DAF800405746D1F804C09C435FEA09
:10140000CC2C00D51C433C60DBF800405F46D1F893
:1014100004C09C435FEA8C2C00D51C433C60DEF882
:1014200000407746D1F804C09C435FEA8C3C00D56D
:101430001C433C60084F083F3C68D1F804C09C4303
:101440005FEACC3C00D51C433C60521C102AFFF4E0
:101450002FAFBDE8F88F0000083C0140443802403F
:101460000030014000000240000402400008024039
:10147000000C02400010024000140240001802401C
:10148000001C024001488068704700000C000020EA
:1014900070B5040025D094F83D00002520B984F8EB
:1014A0003C50204600F052FA242084F83D00206889
:1014B000016821F0010101602068016841F40041E8
:1014C00001602068016821F40041016000F0F0FB38
:1014D0004D4A6168914201D84C4900E04C4988422C
:1014E00001D2012070BD4B492368B0FBF1F15E6869
:1014F00026F03F060E435E606368934206D94FF4C0
:10150000967359434FF47A73B1FBF3F12368491C86
:101510001E6A26F03F06314319626168914210D875
:101520004900401EB0FBF1F2521CC2F30B02042A28
:1015300001D2042022E0B0FBF1F0401CC0F30B000C
:101540001CE0A268F2B301EBC10303EB0116431EDA
:10155000B3FBF6F35B1C43F480431B0549D092B305
:1015600001EBC10202EB0111401EB0FBF1F0401C87
:10157000C0F30B0040F4804040F400402168CA6989
:101580004CF6FF739A431043C861D4E90710014336
:101590002068026822F0C00211430160D4E903010F
:1015A00001432068826848F2FF339A431143816007
:1015B000D4E9050108432168CA6822F0FF021043FC
:1015C000C86001E00EE016E02068016841F001010A
:1015D00001602564202084F83D00256384F83E5096
:1015E000002070BD01EB4106431EB3FBF6F35B1C0C
:1015F000B3E70120C2E701EB4101401EB0FBF1F06F
:10160000401CC0F30B00B7E7A086010080841E00D9
:1016100000093D0040420F002DE9FF4F83B09A467C
:10162000DDE9118793460446DDF84090FFF72AFF75
:10163000054694F83D00202870D1192301227449F1
:101640002046009501F01EFA0028F5D194F83C00E0
:10165000012863D0012084F83C0020680168C90794
:1016600003D1016841F0010101602068016821F4A3
:1016700000610160222084F83D00402084F83E0093
:1016800000262664C4F82490A4F82A80608D208562
:101690006048E062CDE9007553465A4620460499F9
:1016A00001F0F2F8002879D1208DD0B1012821D0A5
:1016B0000228206824D0416980690090208D032889
:1016C00066D801282BD0544902283B464FF000022F
:1016D000009557D08846204601F0D4F900285DD106
:1016E0003AE02068416981690091016841F4007124
:1016F00001607DE02068016821F480610160F0E70D
:10170000016821F4806101602068016841F4006192
:101710000160206841698069009069E075E02A46AF
:101720003946204601F054FA88BB54E0206801682D
:1017300041F40071016020680069616A0870606AA4
:10174000401C6062218D491E2185618D491E618585
:1017500021680969017042E02068016821F4806114
:10176000016020680069616A0870606A401C6062FC
:10177000208D401E2085608D401E60853B460022E6
:1017800041460095204601F07DF900B9CEE705E01D
:101790002A463946204601F01BFA18B1012007B04D
:1017A000BDE8F08F20680069616A0870606A401CBB
:1017B0006062208D401E81B22185608D401E608553
:1017C00020684269D243520712D4032903D1016829
:1017D00021F48061016020680069616A0870606AB4
:1017E000401C6062208D401E2085608D401E6085FB
:1017F000208D00287FF462AF202084F83D0084F81B
:101800003E6084F83C600020C9E70220C7E7000082
:10181000020010000000FFFF040001002DE9FF4F4F
:1018200083B09A46DDE9119793460446DDF840807F
:10183000FFF728FE054694F83D0020287FD11923A4
:10184000012240492046009501F01CF9002876D17C
:1018500094F83C00012872D0012084F83C002068F4
:101860000168C90703D1016841F0010101602068E6
:10187000016821F400610160212084F83D004020CE
:1018800084F83E0000262664C4F82480A4F82A9038
:10189000608D20852C48E062CDE9007553465A469C
:1018A0002046049901F06EF870B930E02A463946B6
:1018B000204601F0C5F958B1206C042804D12068F5
:1018C000016841F400710160012007B0BDE8F08FAC
:1018D000606A216800780861606A401C6062218D3E
:1018E000491E89B22185628D521E62852268536924
:1018F000DB435B070BD469B100781061606A401C60
:101900006062208D401E2085608D401E6085208D88
:101910000028CBD12A463946204601F087F8002816
:10192000CAD154F83D0B016841F4007101602020D8
:1019300004F81E09E67766770020C6E7FFE7022075
:10194000C3E70000020010000000FFFF10B586B0E2
:10195000044614216846FEF72DFE1349206888428C
:1019600020D112480021026842F0020202600068A1
:1019700000F002000590C02000901220CDE9010186
:10198000032003900420049069460948FFF782FC75
:1019900006481030016841F400110160006800F44D
:1019A0000010059006B010BD0054004030380240D1
:1019B0000004024002488168027811448160704747
:1019C0000C0000200B4810B5016841F40071016063
:1019D000016841F480610160016841F48071016037
:1019E000032000F099F80F2000F006F800F04AF804
:1019F000002010BD003C024030B505461C4887B0B1
:101A00000024016841F001010160006806A900F0AE
:101A10000100009001A800F02BF900F059F91549D8
:101A20004000B0FBF1F11548134A491E026040F234
:101A3000E732C0E90324C0E90114846100F042FBED
:101A4000040012D10D4800F06BFB04000DD11920E9
:101A500000F034F8102D07D200222946192000F09A
:101A60003BF80748056000E0012407B0204630BD80
:101A70004438024040420F0000000140BC020020F8
:101A8000100000200C4882B0016841F480410160E0
:101A9000006800F4804000900748001F016841F092
:101AA000805101600068002200F0805000900F21FA
:101AB000901E02B000F010B844380240002809DB44
:101AC00000F01F02012191404009800000F1E02058
:101AD000C0F8001170470000F0B40E4B1B680C46B4
:101AE000C3F30223C3F10705042D00D90425191DF2
:101AF000072901D2002300E0DB1E012606FA05F1CA
:101B0000491E214099409E40761E16403143F0BC4C
:101B100002F02AB80CED00E0064900F00702086860
:101B20004FF6FF03184040EA0220034A10430860C2
:101B3000704700000CED00E00000FA052DE9F047C9
:101B40000E46050065D0DFF81481D8F80000F7B222
:101B500000F00700B04207D288F80070D8F8000003
:101B600000F00700B04254D128683D4C810712D5DF
:101B7000400703D5206840F4E05020602878000733
:101B800003D5206840F4604020602068A96820F0F8
:101B9000F000084320602878C0072DD030496868DD
:101BA0000839012812D0022813D0032811D009685F
:101BB000890700292DDA216821F003010143216002
:101BC000FFF760FC814641F2883A0EE0096889031C
:101BD000EFE709688901ECE7FFF754FCA0EB090186
:101BE000514502D90320BDE8F0872068696800F0FC
:101BF0000C00B0EB810FEFD1D8F80010404601F097
:101C00000701B14207D90770006800F00700B04231
:101C100001D00120E7E72878400705D52068E9686A
:101C200020F4E050084320602878000706D520689B
:101C3000296920F4604040EAC100206000F058F8B3
:101C40002168084AC1F30311515CC8400649086085
:101C500006480068FFF7D0FE0020C4E7003C0240C1
:101C600008380240EC89000818000020100000200D
:101C70000F2202600C4A136803F0030343601368E9
:101C800003F0F0038360136803F4E053C360126849
:101C90004FF4E05303EAD20202610448006800F006
:101CA000070008607047000008380240003C02400E
:101CB0000448054900680968044AC1F38221515C5F
:101CC000C84070471800002008380240FC8900080E
:101CD0000448054900680968044AC1F34231515C6F
:101CE000C84070471800002008380240FC890008EE
:101CF000154810B5006810F00C02144813D01449B0
:101D0000042A0FD0082A0ED10F4C241F2268236802
:101D100002F03F025B0207D52068C0F38810A0FBE9
:101D2000010106E0084610BD2168C1F38811A1FB3E
:101D300000010023FEF7F8FA2168C1F30141491CB4
:101D40004900B0FBF1F010BD083802400024F40057
:101D500040787D012DE9F84F04006ED02078DFF83F
:101D60004C93C007A9F104054AD009F104000168A9
:101D7000C1F38101012908D00068C0F38100022865
:101D80000AD1D9F80000400206D52868800337D56B
:101D900060680028E1D033E06068B0F5803F10D083
:101DA000B0F5A02F286810D020F480302860286873
:101DB00020F4802028606068A8B1FFF763FB064626
:101DC0000DE0286840F48030F4E740F4802028607B
:101DD000F7E700BFFFF756FB801B642873D828681D
:101DE0008003F7D50CE0FFF74DFB064605E000BF8A
:101DF000FFF748FB801B6428F0D828688003F7D4DD
:101E00002078DFF8AC8280074FF0000A3ED5A74863
:101E1000001D016811F00C0F08D00068C0F38100AC
:101E200002280BD1D9F80000400207D428688007A7
:101E300016D5E068012800D112E033E1E068B8B1BE
:101E40000120C8F80000FFF71DFB064605E000BFB3
:101E5000FFF718FB801B0228C0D828688007F7D539
:101E60002868216920F0F80040EAC10028600DE0F0
:101E7000C8F800A0FFF706FB064604E0FFF702FBE8
:101E8000801B02281FD828688007F7D42078000715
:101E900022D5864F87486169703771B10121016091
:101EA000FFF7F0FA064604E0FFF7ECFA801B022881
:101EB00009D838688007F7D50EE0C0F800A0FFF712
:101EC000E1FA064605E082E0FFF7DCFA801B022813
:101ED0007DD838688007F7D42078400768D5DFF8C8
:101EE000CCB100270BF13C0BDBF80000C0000BD499
:101EF000DBF8001041F08051CBF80010DBF8000057
:101F0000012700F0805000906B4E3068C00510D45F
:101F1000306840F480703060FFF7B4FA009005E05C
:101F2000FFF7B0FA0099401A022850D83068C0056F
:101F3000F6D55E4EA0686C3601280FD005283068B3
:101F400010D020F001003060306820F004003060D4
:101F5000A068B8B1FFF796FA00900FE0306840F043
:101F60000100F4E740F004003060F7E7FFF78AFA79
:101F70000099411A41F28830814266D83068800762
:101F8000F4D50EE0FFF77EFA009007E0FFF77AFA4B
:101F90000099411A41F28830814256D83068800752
:101FA000F4D42FB1DBF8001021F08051CBF80010F1
:101FB000A069C8B33D49091D0968C1F3810102291F
:101FC0004AD00228504607D0C8F8600000E03CE044
:101FD000FFF758FA04463BE04746C8F86000FFF7B1
:101FE00051FA064605E000BFFFF74CFA801B0228B5
:101FF0002BD828688001F7D4D4E907010843A16AE7
:102000002E4A490802EB0141626A41EA8211084303
:1020100094F82C1040EA0161C9F8001001203866DC
:10202000FFF730FA044606E03EE000BFFFF72AFA69
:10203000001B022809D828688001F7D534E000BFCA
:10204000FFF720FA001B022802D90320BDE8F88F11
:1020500028688001F4D427E00128F7D0D9F80000DF
:10206000E26900F4800191421CD1226A00F03F0134
:10207000914217D147F6C071626A0140B1EB821FED
:1020800010D1A26A4FF0FF3300F4403103EB52024B
:10209000B1EB024F06D194F82C1000F07060B0EB59
:1020A000016F01D00120D1E70020CFE704380240C2
:1020B00000004742800E4742007000400000FFFFD2
:1020C0007047704710B5040003D094F83D0010B17C
:1020D00007E0012010BD002084F83C00204600F0FD
:1020E0001EF8022084F83D00211D206801F0F0F95F
:1020F000012084F8460084F83E0084F83F0084F80C
:10210000400084F8410084F8420084F8430084F8D9
:10211000440084F8450084F83D00002010BD70475D
:1021200090F83D10012901D001207047022180F86C
:102130003D100168CA6842F00102CA600068114996
:10214000884214D0B0F1804F11D00F4988420ED090
:102150000E4988420BD00E49884208D00D4988426A
:1021600005D00D49884202D00C49884204D18168CB
:1021700001F00701062903D0016841F00101016067
:1021800000207047000001400004004000080040AB
:10219000000C0040000401400040014000180040D5
:1021A00070472DE9F04104460068C66805694FF0A4
:1021B0000007A90713D5B10711D5F91E0161012048
:1021C0002077206880698007204602D0FFF7E8FF6B
:1021D00004E000F07EF8204600F07CF827776807DE
:1021E00016D5700714D521686FF00400086102202D
:1021F00020772068806910F4407F204602D0FFF7E6
:10220000CFFF04E000F065F8204600F063F8277780
:10221000280715D5300713D521686FF0080008612D
:10222000042020772068C0698007204602D0FFF78D
:10223000B7FF04E000F04DF8204600F04BF8277798
:10224000E80616D5F00614D521686FF01000086175
:10225000082020772068C06910F4407F204602D013
:10226000FFF79EFF04E000F034F8204600F032F85B
:102270002777E80708D0F00706D021686FF0010043
:102280000861204600F028F8280608D5300606D553
:1022900021686FF0800008612046FFF711FF680693
:1022A00008D5700606D521686FF040000861204609
:1022B00000F01CF8A8060AD5B00608D521686FF012
:1022C000200008612046BDE8F041FFF7FABEBDE8F6
:1022D000F08170477047000000680349884201D1CF
:1022E000FFF768BB7047000000000140704738B539
:1022F000044690F84200202801D0022038BD51B198
:102300004AB10120206300206063204601F0ECFA0E
:10231000216B012901D0012038BD21680A68496874
:10232000009121680C3151E8002F42F0100241E881
:102330000023002BF5D138BD064A10B5904208D1D4
:10234000192902D1044800F0E7FFBDE8104000F071
:1023500057BF10BDB401002090500020704700000E
:10236000F8B5016804460868CA684B6910F00F0F99
:102370004FF0000559D003F0010602F4907737437F
:1023800065D0C10705D0D10503D5616C41F00101CD
:102390006164410705D5D90703D0616C41F00201A2
:1023A0006164810705D5D90703D0616C41F0040150
:1023B0006164010707D502F02001314303D0616C4D
:1023C00041F008016164616C00293AD0800604D5AF
:1023D000900602D5204601F09FF920684069616CA3
:1023E000C0F38010090700D460B3204601F05FF904
:1023F00020684069400621D52068143050E8001F4D
:1024000021F0400140E80012002AF5D1E06BA8B1AC
:1024100072490165E06BFEF7A7FD002811D0E06B63
:10242000016D01B0BDE8F040084783060FD5930663
:102430000DD52046BDE8F84001F06EB92046FFF703
:102440008DFFF8BD2046FFF789FF6564F8BD266B58
:102450002023012E7ED1C6067CD5D6067AD5086803
:102460004868009048694FF0020640064DD5E26B7F
:10247000106840684FF480770004000C3AD0A18DBA
:10248000814237D9E085D069B8422DD020680C3020
:1024900050E8001F21F4807140E80012002AF5D1B5
:1024A0002068143050E8001F21F0010140E80012BC
:1024B000002AF5D12068143050E8001F21F04001B7
:1024C00040E80012002AF5D184F8423025632068E4
:1024D0000C3050E8001F21F0100140E80012002AE3
:1024E000F5D1E06BFEF7F7FC6663A08DE18D401A35
:1024F00081B206E0A18D8142A8D1D069B842A5D1B0
:1025000066632046FFF718FFF8BDA08DE18D401AE5
:1025100081B2E08D0028F7D00029F5D020680C307A
:1025200050E8002F22F4907240E80027002FF5D1E8
:102530002068143050E8002F22F0010240E8002704
:10254000002FF5D184F84230256320680C3050E824
:10255000002F00E006E022F0100240E80023002BEC
:10256000F3D1CDE705062BD5150629D594F8410002
:102570002128C9D1A068B0F5805F01D12069B0B130
:10258000206A411C2162216800784860E08C401E6E
:102590000004000CE084B7D12068C16821F08001FC
:1025A000C1602068C16841F04001C160F8BD206A87
:1025B0000088C0F308004860206A801C2062E5E7BC
:1025C0004006F3D55006F1D5CA68204622F04002F5
:1025D000CA6084F8413000F033F9F8BDB335000823
:1025E00070B5040004D094F84100002510B106E055
:1025F000012070BD84F84050204600F023F82420CC
:1026000084F841002068C16821F40051C16020466F
:1026100001F0E4F82068016921F49041016120682B
:10262000416921F02A0141612068C16841F40051EB
:10263000C1606564202084F8410084F8420065632D
:10264000002070BD2DE9F04186B006461421684691
:10265000FDF7B0FF4B484B4DDFF824C13368002431
:10266000103D0221032247054FF4806863453DD1A8
:10267000036843F400230360006800F40020059021
:10268000286840F004002860286800F004000590E5
:1026900090028DE813000820CDE9032069463A48EE
:1026A000FEF7F8FD286840F4001028602868384DCF
:1026B00000F4001005903548E5E802074020A5E841
:1026C0001101334845F81449AC61EC612C626C622D
:1026D000FEF72CFD08B1FEF776F8B5630022052160
:1026E0000F20AE63FFF7F8F90F2043E0DFF8A4C036
:1026F000634541D1036843F400330360006800F48C
:1027000000300590286840F400102860286800F424
:1027100000100590286840F001002860286800F04B
:10272000010005900C208DE813000720CDE903205F
:1027300069461948FEF7AEFD154D1448603518304E
:102740002860C5E90174C5E903486C614FF40030A5
:10275000AC61C5E9074028466C62FEF7E7FC08B1AA
:10276000FEF731F8F563002205211020AE63FFF774
:10277000B3F91020FFF7A2F906B0BDE8F081000020
:10278000004C0040403802400008024070600240A7
:10279000FC010020004400400000024070477047E8
:1027A0002DE9F843044690F84100984616460D4638
:1027B000202802D00220BDE8F88385B17EB1002038
:1027C0006064212084F84100FEF75CFEA684814607
:1027D000E684A0682027B0F5805F02D003E00120E6
:1027E000E9E7206910B12E4600250EE000260CE036
:1027F0008021204601F0C8F8A8B9C6B116F8010B2F
:1028000021684860E08C401EE084E08C4B464FF02D
:102810000002CDF800800028EAD14FF040012046A8
:1028200001F0B2F840B184F841700320C3E735F8F5
:10283000020BC0F30800E3E784F841700020BAE718
:102840000349884202D10349002008707047000004
:102850006C010020D4000020FEE701684A69D243E1
:1028600052050FD46FF480624A61002140F8301F96
:10287000202242738173026942F0040202610173F3
:1028800001207047002070472DE9F84F044600688A
:1028900089460B9D01689846174641F480610160A6
:1028A0002068016841F48071016000954FF0011BC0
:1028B0000022594620460A9B00F0E4F84FF4007AC3
:1028C00040B120680068C00501D5C4F840A00320CD
:1028D000BDE8F88F216809F0FE0008612B46284901
:1028E00020460A9A00F016F9F0BB20684169806919
:1028F00000902A4620460A9900F0A2F940B1206CC7
:1029000004283AD12068016841F40071016034E084
:10291000FEB2B8F1010F09D02168380A08612A46D1
:1029200020460A9900F08CF90028E8D12068066159
:102930002A4620460A9900F083F90028DFD1206852
:10294000016841F4807101600095002259462046DB
:102950000A9B00F097F80028B3D1216809F0FF0026
:1029600040F00100086100E007E02B4604492046E2
:102970000A9A00F0CFF80028AAD00120A8E70000AA
:10298000020001002DE9F843044600680D46DDE928
:10299000089701689846164641F4807101604B46DD
:1029A00000224FF001112046009700F06BF848B16B
:1029B00020680068C00502D54FF400702064032031
:1029C000BDE8F883216805F0FE0008613B464A46F1
:1029D0001549204600F09EF888B920684169806951
:1029E00000903A464946204600F02AF948B1206C4A
:1029F000042804D12068016841F4007101600120BD
:102A0000DEE7F5B2B8F1010F09D02168300A08619C
:102A10003A464946204600F013F90028E7D12068DD
:102A200005610020CCE700000200010070B51646E9
:102A30000D4604461EE02046FFF70FFF08B10120B7
:102A400070BD681C16D0FEF71DFD801BA84200D883
:102A500085B920684069C04340070BD5002044F881
:102A6000300F20216173A073216941F020012161A1
:102A70002073E4E720684069C0434007DBD40020AE
:102A800070BD00002DE9F047984617460D460446F4
:102A9000C1F30746DDF820902AE000BFB8F1FF3F00
:102AA00026D0FEF7EFFCA0EB0901414502D8B8F1B2
:102AB000000F1DD12068012E16D0806925EA000084
:102AC0000004000C12D00020B84211D1002044F8BC
:102AD000300F20216173A073216941F02001216131
:102AE00020730120BDE8F0874069E7E70120EBE7AC
:102AF0002068012E0AD0806925EA00000004000C3D
:102B000006D00020B842C9D00020EBE74069F3E7C7
:102B10000120F7E72DE9F047984616460D46044692
:102B20004FF000094FF0200AC1F3074723E0206867
:102B30004069C043400515D42068016841F4007124
:102B4000016021686FF480604861C4F8309084F8B7
:102B50003DA084F83E90216C41F00401216484F88A
:102B60003C9021E0701C06D0FEF78CFCA0EB080026
:102B7000B04203D816B1012F1FD021E02068012FE9
:102B800015D0806925EA00000004000C18D000BFB1
:102B900044F8309F84F80DA084F80E90216941F02C
:102BA0002001216184F80C900120BDE8F087406984
:102BB00025EA00000004000CEAD12068406901E029
:102BC0002068806925EA00000004000CAFD1ECE722
:102BD0002DE9F041002590460E460446202728E0C6
:102BE0004069C043C0060CD454F8301B6FF010008D
:102BF000486144F810596777A577206A20622577E5
:102C000014E0FEF73FFCA0EB0800B04200D886B904
:102C100020684069C04340060BD544F8305F6773B5
:102C2000A573206940F02000206125730120BDE8D4
:102C3000F08120684169C9434906D1D40020F6E7F4
:102C400070B516460D4604461EE02046FFF705FE09
:102C500008B1012070BD681C16D0FEF713FC801B64
:102C6000A84200D885B920684069C04300060BD54A
:102C7000002044F8300F20216173A073216941F0D6
:102C8000200121612073E4E720684069C043000609
:102C9000DBD4002070BD000070B50D462DED0C8B0F
:102CA0008EB006460CA902A81446F7EE00BACDE98C
:102CB00000010BAB03AA09A907A801F0D1FD28B1B7
:102CC0004FF0FF300EB0BDEC0C8B70BDBDF80800AE
:102CD000C0057CD59DED030AF8EEC00A9FED440ABD
:102CE000B0EE00CA60EE809ADDED040AF8EEE00A6C
:102CF00069EE8CCA20EE808ADDED050AF8EEE00A66
:102D000060EE808ADDED060AF8EEE00A20EE809A99
:102D1000B8EE000A28EE00BA2BEE090A0CEEA80A5B
:102D200010EE100A05F0ACFD41EC100B00F02CFF8A
:102D30009FED30AB51EC100B53EC1A2B05F0E0FA81
:102D400005F064F82BEE080A28EE8CDA30600DEE00
:102D5000680A30EE2B0A10EE100A05F091FD2DEEF8
:102D6000090A41EC1B0B0CEE880A10EE100A05F064
:102D700087FD41EC100BB0EE4B1AF0EE6B1A01F030
:102D80001FFA53EC1A2B51EC100B05F0B9FA05F0B1
:102D90003DF829EEA90A286008EE080A08EEE80ABC
:102DA00009EE490A10EE100A05F06AFD29EE890ABB
:102DB00041EC1B0B08EE280A20EE0C0A10EE100A5C
:102DC00005F05EFD41EC100BB0EE4B1A00E00CE09C
:102DD000F0EE6B1A01F0F4F953EC1A2B51EC100BD6
:102DE00005F08EFA05F012F8206000206AE7000076
:102DF000000080306666666666A64C407CB50020A2
:102E000000900190684602F0B9FC10B14FF0FF301D
:102E10007CBD782003F05EFA10B16FF001007CBD3C
:102E2000782002F0D7FB10B16FF002007CBD642067
:102E300003F004FA10B16FF003007CBD01F006FD51
:102E400010B16FF004007CBD1948044602F088FB05
:102E50000546E01C02F084FB45EAC005A01D02F017
:102E60007FFB45EA801080B201F0B4FE10B16FF034
:102E700005007CBD40F2731001F0C0FB10B16FF093
:102E800006007CBD642001F00DFE10B16FF007005C
:102E90007CBD03F099FF10B16FF008007CBD0120EC
:102EA00003F0C6F80028F9D06FF009007CBD0000DF
:102EB000C80000200F4810B50D4901600321416092
:102EC00000214FF400228160C0E903124FF4401248
:102ED0004261017641768176C17601774177FDF7CF
:102EE000EEFE002803D0BDE81040FDF76CBC10BD1D
:102EF00000640040F000002010B50B4A00210B4890
:102F000003F0CEFA0A4C084A002120602432094816
:102F100003F0C6FA044A606048320021064803F014
:102F2000BFFAA06010BD000078890008693300086E
:102F30000000002071330008AD3300080D4808B5CB
:102F4000016841F080010160016801F08001009199
:102F5000016841F001010160016801F00101009187
:102F6000016841F002010160006800F00200009079
:102F700008BD0000303802400D4810B50B49016013
:102F80000C49416000214FF480428160C0E9031286
:102F900041618161C1610162FEF77AFA002803D0C4
:102FA000BDE81040FDF70FBC10BD0000005400400C
:102FB00018010020A08601000C4810B50A490160E4
:102FC0004FF4E1314160002181600C22C160C0E911
:102FD00004128161C161FFF703FB002803D0BDE843
:102FE0001040FDF7F0BB10BD004C00406C0100200C
:102FF0000E4810B50C4901600D4941604FF48051F5
:1030000081604900C160C910016104214161002152
:103010008161C161FFF7E4FA002803D0BDE81040E8
:10302000FDF7D1BB10BD000000440040B4010020FA
:10303000A0860100FEE740F6C411884202DC494246
:10304000884200DA0846704748B1212807D200EBD1
:103050008001044800EB8100017C002900D10020A0
:1030600070470000E84B002000B58BB0282168466F
:10307000FDF7A0FA00200121CDE90601059000909E
:1030800001900290039004900E20CDE9081069464B
:103090000A48FDF715FC08B1FDF795FB0748FDF759
:1030A000E7FE08B1FDF78FFB02210448FDF78DFB19
:1030B000002801D0FDF787FB0BB000BDF000002019
:1030C000130A43540844427070470844008840BAC9
:1030D00000B2704700B589B007AB6A460021FDF722
:1030E00076FC08B1FDF76FFB07A9684600F040F8D1
:1030F00009B000BDF0B589B006460020DDE90E45F7
:103100000690CDE90010079008210290CDE9030157
:103110008DF814001F461046FFF78DFF0246002170
:1031200006A8FFF7CDFF3846FFF785FF02460221CC
:1031300006A8FFF7C5FF2046FFF77DFF02460421E2
:1031400006A8FFF7BDFF2846FFF775FF02460621D8
:1031500006A8FFF7B5FF08AB06AA69463046FDF79B
:1031600046FB002801D0FDF72EFB09B0F0BD0000A2
:1031700070B50546806886B00C46002838D1E868EE
:10318000002835D12869072832D32E68B6F5017F8B
:103190002ED9B6F501762BD0212E29D28DF80060DC
:1031A0002088022140BAADF802002046FFF78DFFCB
:1031B0004042ADF8040004212046FFF786FF40425C
:1031C000ADF80600A0798DF808002868039001206A
:1031D0008DF81000074906EB860001EB80001422F1
:1031E0006946FDF7ADF9142269460348FDF7A8F9D1
:1031F00006B070BDE84B00207C4E0020FEE70000CA
:1032000010B5192208490948FFF771F808B1FDF710
:10321000DAFA0648C06B002804D00068016821F083
:103220000801016010BD000090500020B401002092
:10323000A0F2CD32A0F57871272A01D20020704784
:1032400046F2A812A0F578705043002902DD40F242
:10325000333101E04FF44D7190FBF1F046F2A811CB
:10326000884202DC4942884200DA084600B27047D0
:1032700070B50C46050013D094B104F00BFC064663
:1032800003F0B0FE0B4A107828B1906818B190682E
:10329000301A322806D900202880208003F0C2FE90
:1032A000002070BD508828809088208003F0BAFEEE
:1032B000012070BDE400002010B500F023F805489F
:1032C00000214180818001708160BDE81040FFF7DE
:1032D00097BF0000E400002001EB410202EBC101B6
:1032E000012202EBD102D2B201F00701835C10444B
:1032F0004278807843EA022242EA0040C840C0F3A4
:103300000A0070470348002141808180017081607C
:1033100070470000E400002070B5054600780F28D3
:103320001ED1287E00281BD1E97D0E4C0A0701D44E
:10333000490702D56080A0800EE000212846FFF7F3
:10334000CBFFFFF775FF608002212846FFF7C4FF1F
:10335000FFF76EFFA0800120207004F0A1FBA060A9
:1033600070BD0000E4000020012003F05DF8FBE7E1
:1033700008B504F08FFB009002E0642003F00AFF20
:10338000FFF73CFD0028F8D1074A111F081FFFF77F
:1033900083FC20B9044A111F081F00F059FB0A21C1
:1033A000684603F01DFFEFE7E00000201CB5FFF7C3
:1033B0005BFEFFF781FF0024ADF80440ADF800404C
:1033C000694601A8FFF754FF28B1BDF80400A0F238
:1033D000EF30ADF80400BDF9040000F0E1F8ADF8FD
:1033E0000400BDF9000000F0DBF8ADF80000034672
:1033F0000022BDF904101046FDF778F9052003F00E
:10340000C9FED9E710B54FF0E020006904F034FBA5
:10341000012803D0BDE8104004F062B810BD0000E0
:1034200030B593B030216846FDF7C4F814210CA8DC
:10343000FDF7C0F81D480025016841F0805101608A
:10344000006800F0805011901948016841F48041F3
:1034500001600068022400F4804011900120039074
:1034600010200490009406940820CDE90750A8206D
:10347000CDE9090404200B906846FEF76BFC08B107
:1034800072B6FEE70CA90F2081E831004FF4A0507E
:103490000F904FF48050109005210CA8FEF74EFBC2
:1034A000002801D072B6FEE713B030BD40380240AC
:1034B000007000400248016841F4700101607047EB
:1034C00088ED00E00148FEF76CBE0000BC02002061
:1034D000F0B50268274B284D284E294F294C4FF054
:1034E000804C984209D0604507D0A84205D0B04230
:1034F00003D0B84201D0A04204D122F0700E4A6835
:1035000042EA0E0298421BD0604519D0A84217D05B
:10351000B04215D0B84213D0A04211D01A4DA842E3
:103520000ED01A4DA8420BD0194DA84208D0194D03
:10353000A84205D0184DA84202D0184DA84203D188
:1035400022F44075CA682A434D6922F080022A435A
:103550008D68C5620D688562984201D0A04201D194
:1035600009690163016841F00401016001214161C1
:103570000260F0BD0000014000040040000800406F
:10358000000C0040000401400040014000440140A4
:103590000048014000180040001C0040002000408E
:1035A00040F6C411884202DC4942884200DA0846EB
:1035B000704710B5806B0021C185FEF7CFFE10BDAE
:1035C00070B5846B2068406994F84110C0F3C01056
:1035D0000025212904D118B1E584204600F08EF899
:1035E0002068406994F84210C0F38010222904D169
:1035F00018B1E585204600F05AF8606C40F01000E4
:1036000060642046FEF7AAFE70BD10B50146806BCF
:10361000096809684FF00002C9052ED4C285016807
:103620000C3151E8003F23F4807341E80034002C52
:10363000F5D10168143151E8003F23F0010341E85E
:103640000034002CF5D10168143151E8003F23F01B
:10365000400341E80034002CF5D1202180F84210CD
:10366000016B012909D101680C3151E8003F23F0B9
:10367000100341E80034002CF5D14263016B0129AD
:1036800002D0FFF78BF810BD818DFEF755FE10BDFF
:1036900010B5806B01214163016B012902D0FFF756
:1036A0007EF810BD818D4908FEF746FE10BD016809
:1036B0000C3151E8002F22F4907241E80023002BD6
:1036C000F5D10168143151E8002F22F0010241E8E0
:1036D0000023002BF5D1016B012909D101680C31C0
:1036E00051E8002F22F0100241E80023002BF5D111
:1036F000202180F8421000210163704701680C31DD
:1037000051E8002F22F0C00241E80023002BF5D140
:10371000202180F84110704708B590F84210222906
:1037200001D0022008BD82684FF480539A4201D133
:10373000016921B1816A9A421BD04AB10AE002684C
:10374000816A5268C2F308020A80816A891C08E013
:10375000026972B10268526802F07F020A70816ADF
:10376000491C8162C18D491E0904090CC18503D021
:103770001BE002685268F1E70168CA6822F0200283
:10378000CA600168CA6822F48072CA6001684A6926
:1037900022F001024A61202180F842100021416399
:1037A000026B012A03D0FEF7F9FF002008BD016378
:1037B00001680C3151E8002F22F0100241E800238B
:1037C000002BF5D101680A68D20602D50A6849685B
:1037D0000091818DFEF7B0FDE7E7000070B504466B
:1037E00000680169E26821F44051114301612169D7
:1037F000A068E26908436169114308432168CA6807
:1038000049F20C639A430243CA6020684169A26985
:1038100021F440711143416131492068884202D04E
:103820003049884202D1FEF753FA01E0FEF740FA30
:10383000E2690023192164253226B2F5004F62683F
:1038400028D0A0FB0101930F9200FCF76DFD01460B
:10385000B0FBF5F06FF01802504301EB800006EB6F
:103860000010B0FBF5F000F0F002B1FBF5F002EB58
:103870000012B1FBF5F06FF01803584301EB800024
:1038800006EB0010B0FBF5F000F00F0021681044CB
:10389000886070BDA0FB010192185B41FCF744FDFC
:1038A0000146B0FBF5F00201B1FBF5F06FF0180333
:1038B000584301EB800006EBC000B0FBF5F000F0D0
:1038C000F80002EB4002B1FBF5F0584301EB800039
:1038D00006EBC000B0FBF5F000F00700D6E70000F3
:1038E000001001400014014038B581620446828511
:1038F000002013466064222284F84220E56B1F4AB0
:10390000EA63E56B1E4A2A64E56B1E4AEA64E26BD1
:1039100010650A462168E06B091DFDF771FC30B1A6
:1039200010206064202084F84200012038BD206807
:10393000016840680090206948B120680C3050E868
:10394000001F41F4807140E80012002AF5D1206880
:10395000143050E8001F41F0010140E80012002A35
:10396000F5D12068143050E8001F41F0400140E8D4
:103970000012002AF5D1002038BD00000B360008E7
:1039800091360008C13500082DE9F84398461746DE
:103990000D460446089E24E0701C22D0FDF772FDFF
:1039A000A0EB0800B0421AD8CEB12068C168490720
:1039B00017D5802D15D0402D13D00168C9430907B4
:1039C0000FD401680025406800902046FFF76FFE85
:1039D0000820606484F840500120BDE8F88303208B
:1039E000FBE72068006835EA000004D00020B842F8
:1039F000D2D00020F1E70120F9E700000148FEF7EE
:103A0000AFBC0000B4010020FEE7000031B5042582
:103A10002DED020B0446294600F010F8002809D0CD
:103A2000054920682A4608446946FCF744FD206899
:103A3000001D20603EBD0000904E0020006808443C
:103A4000B0F5007F01DB00207047012070470000C7
:103A50002DE9F04100242DED028B82B090460F46F7
:103A60000646009403F0BEFA2F4D287830B103F0DB
:103A7000D9FA02B0BDEC028BBDE8F08101202870BC
:103A800003F0D0FA96B18FB1B8F1000F0ED096EDD9
:103A9000000A6846FFF7BAFF97ED000A6846FFF78D
:103AA000B5FF98ED000A6846FFF7B0FF9FED1F8A4B
:103AB00001263046FFF7C8FA07002DD0788800EEBF
:103AC000100A6846B8EE400AFFF7A0FFB7F90400F5
:103AD00000EE100AB8EEC00A6846FFF797FF761CA2
:103AE000F6B2082EE5D904216846FFF7A7FF88B192
:103AF0000F490098802264230C54401C0C54401C35
:103B00000A54401C7F220A54401C82B2009009488B
:103B1000FEF746FE2C70ACE7B0EE480A6846FFF7A9
:103B200075FFB0EE480AD7E7D4000020000000007F
:103B3000904E00206C01002003B4019841000098D1
:103B400050EAC12018BF04204A0D18BF40F0010000
:103B500040F2FF72B2EB515F08BF40F00200012853
:103B600008BF052002B070470907090E002804DBD2
:103B700000F1E02080F80014704700F00F0000F121
:103B8000E02080F8141D704770B5C1482DED020B80
:103B90002DED0E8B82B0119D25F000449FEDBEDB14
:103BA0009FEDBFEB84423EDBA4F140511098A1F1A0
:103BB0007F6108430FD0BC48844202DC28D11098B2
:103BC00030B39DED100B02B0BDEC0E8B02B0BDE822
:103BD000704000F071BC9DED100B53EC1D2B51ECAF
:103BE000100B04F08DFB9DED100B41EC180B53EC0A
:103BF0001E2B51EC100B04F083FB53EC182B04F03C
:103C000037F941EC100B02B0BDEC0E8B02B070BD69
:103C10000120FCF7FEFC02B0BDEC0E8B02B0BDE84B
:103C2000704000F05DBCA1489FEDA18B844256DA44
:103C30009DED100BB4F1795F0ADA51EC100BFFF730
:103C40007BFF042808BF00F05BFC9DED100BDAE75A
:103C500053EC102B51EC100B04F052FB41EC190B00
:103C600095480621B0EE490AF0EE690A784400F062
:103C7000A7FB53EC192B51EC100B04F041FB41EC6A
:103C80001A0B8E48B0EE490AF0EE690A0421784416
:103C900000F096FB53EC192B51EC100B04F030FBA9
:103CA00053EC182B04F0E4F841EC100B51EC1A0B18
:103CB00053EC102B04F090F9CDE900019DED000BC1
:103CC00053EC102B9DED100B51EC100B04F018FB76
:103CD0009DED101B53EC112B04F0CAF8D2E09DEDC2
:103CE000100B51EC100B01F035F953EC182B04F0CC
:103CF00005FC9FED730BCDE9000153EC102B9DEDFE
:103D0000000B51EC100B04F0FBFA41EC190B6E4860
:103D10000621B0EE490AF0EE690A784400F050FB43
:103D200053EC192B51EC100B04F0EAFA41EC1B0B8D
:103D30006648B0EE490AF0EE690A0421784400F0C2
:103D40003FFB53EC192B51EC100B04F0D9FA53EC58
:103D5000182B04F08DF841EC1C0B51EC190B03F0FF
:103D6000AFF841EC180B5A489FED5BABA04222DC48
:103D700053EC1C2B51EC1B0B04F02EF9CDE9000188
:103D80009DED000B51EC180B53EC102B04F0B8FA1E
:103D900053EC182B04F06CF853EC1A2B04F0B0FA27
:103DA00053EC1D2B04F082FC53EC1E2B04F0A6FBFD
:103DB00041EC100B5FE08DED008B002000909DED3D
:103DC000000B51EC180B53EC102B04F051F89DED47
:103DD000000B41EC1E0B53EC102B51EC100B04F0BC
:103DE0008FFA53EC192B04F089FB53EC1E2B04F0D3
:103DF000F3F841EC190B53EC1C2B51EC1B0B04F0AA
:103E0000EBF841EC1B0B53EC1A2B51EC190B04F0A3
:103E100077FA53EC1D2B04F071FB41EC190B53ECBA
:103E20001A2B51EC180B04F06BFA53EC1B2B04F01B
:103E300067FA53EC192B04F039FC9DED000B41ECB3
:103E4000180B53EC1A2B51EC100B04F059FA9FEDA0
:103E5000249B53EC192B04F051FB41EC100B51EC5B
:103E6000180B53EC102B04F021FC53EC192B04F02D
:103E700045FB41EC100B002D3FF7C5AE51EC100B8C
:103E800003F0B8FF41EC100BBDE60000000000009D
:103E90000000F03F00000000075C143326A6913CB0
:103EA000182D4454FB21F93F0000F07F0000E03F53
:103EB000000000000000F03FE0590000EE59000053
:103EC000000000000000E03F3259000040590000AF
:103ED0003333EF3F0000000000000000000000400E
:103EE000182D4454FB21E93F70B59B482DED020B82
:103EF0002DED068B079D25F00044A04218DC974865
:103F0000844202DC0AD1069840B19DED060BBDEC5F
:103F1000068B02B0BDE8704000F0CEBA002DCCBFD9
:103F20009FED8F0B9FED900BBDEC068B02B070BD2B
:103F30008F48A04215DD8F48A042D8BF4FF0FF3414
:103F400058DD9DED060B51EC100BFFF7F5FD042835
:103F500008BF00F0D5FA9DED060BBDEC068B02B054
:103F600070BD9DED060B51EC100B00F0F3FFCDE999
:103F7000060181489FED828BA0423CDD8248A04231
:103F80001FDD00249FED82AB9DED060B53EC1A2B39
:103F900051EC100B03F06CFF9DED060B41EC190B7F
:103FA00053EC1A2B51EC100B04F0AAF953EC182B1C
:103FB00004F07CFB53EC192B04F00EF8CDE906015C
:103FC00049E09DED060B012453EC182B51EC100B2E
:103FD00003F04EFF9DED060B41EC190B53EC182B33
:103FE00051EC100B04F062FB53EC192B03F0F4FFBF
:103FF000CDE906012FE06848A0421FDD02249FEDB5
:10400000689B9DED060B53EC192B51EC100B04F043
:1040100077F953EC182B03F02BFF9DED060B41ECC9
:10402000180B53EC192B51EC100B04F03FFB53EC25
:10403000182B03F0D1FFCDE906010CE09DED060B36
:10404000032453EC102B9FED580B51EC100B03F095
:10405000C3FFCDE906019DED060B53EC102B51EC8F
:10406000100B04F04DF941EC180B53EC182B04F035
:1040700047F941EC190B4E480621B0EE490AF0EE23
:10408000690A784400F09CF953EC182B51EC100BA2
:1040900004F036F941EC180B4648B0EE490AF0EE50
:1040A000690A0521784400F08BF953EC192B51EC87
:1040B000100B04F025F941EC100B51EC180B53ECEC
:1040C000102B002C0EDA03F0D3FE9DED061B53ECF3
:1040D000112B04F015F99DED061B53EC112B04F088
:1040E0000DFA35E003F0C4FE9DED061B53EC112BD9
:1040F00004F006F941EC100B2F48784400EBC400A3
:1041000090ED001B51EC100B53EC112B04F0CEFA88
:104110009DED061B53EC112B04F0C8FA41EC100B7B
:104120002648784400EBC40090ED001B51EC100BC6
:1041300053EC112B04F0E2F941EC100B002DA2BF5F
:10414000BDEC068B02B070BD51EC100B03F052FEBB
:1041500041EC100B01E70000000010440000F07F6C
:10416000182D4454FB21F93F182D4454FB21F9BF6D
:104170000000DC3F0000203E0000F33F0000000094
:10418000000000000000F03F0000E63F00000000DB
:10419000000000000000004000800340000000001C
:1041A000000000000000F83F000000000000F0BF29
:1041B0008256000038560000C25500007A550000B3
:1041C00070B56F4E2DED040B2DED048B82B0DDF834
:1041D00024C0DDE907235C422CF000411C4341EA86
:1041E000D474069D22F00040B44205D86C422C43A2
:1041F00040EAD474B4420BD99DED081B9DED060B2B
:1042000002B0BDEC048B04B0BDE8704000F05EB9B4
:10421000ACF14054A4F17F641C430BD0022404EAA7
:10422000AC7444EAD27405439FED578B9FED582B35
:1042300007D015E09DED060B51EC100B00F0B8F91E
:1042400042E0002C11BF012C9DED060B02B0BDEC2D
:10425000048B04BF04B070BD022C38D0032C3BD0BB
:104260000B439FED4D1B9FED4E0B0AD0B14218D171
:10427000B04209D121F0804120F08040099107909F
:104280000FE0002A15DA10E0474B7B44002C08BFF2
:1042900093ED000B0DD0012C10D0022C17D0032C65
:1042A0001AD0B0421DD1002A03DAB0EE410AF0EE76
:1042B000610A02B0BDEC048B04B070BD93ED000B3D
:1042C00051EC100B03F096FD41EC100BF1E7B0EE52
:1042D000480AF0EE680AECE7B0EE420AF0EE620A35
:1042E000E7E7401A00159FED329B3C28C8BF8DEDD3
:1042F000000B17DCBCF1000FBCBF10F13C0F8DEDC3
:10430000009B0FDB9DED080B53EC102B9DED060B76
:1043100051EC100B03F060FE00F01CFE00F048F9B9
:10432000CDE90001B4B1012C10D0022C9FED220B7D
:1043300053EC102B9DED000B51EC100B19D004F039
:10434000B5F953EC182B04F0B1F9BDE7019880F0F2
:10435000004001909DED000B53EC192B51EC100B1C
:1043600003F092FF04BF0220FCF753F99DED000B10
:104370009FE704F09BF953EC182B04F0BFF8A3E778
:104380000000F07F00000000182D4454FB2109407C
:10439000182D4454FB2109C0182D4454FB21F9BFAA
:1043A000182D4454FB21F93FAA54000000000000DE
:1043B0000000000000000000075C143326A6A13CAA
:1043C00070B504462DED028B4D1E00EBC500B0EE1E
:1043D000408AF0EE608A90ED000B35F0060017D0B1
:1043E00053EC182B51EC100B03F08AFF41EC100B2F
:1043F0006D1E04EBC50090ED001B51EC100B53EC4F
:10440000112B03F035FD41EC100B35F00600E7D120
:10441000022D36D0042D1CD0062D1CBFBDEC028B06
:1044200070BD53EC182B51EC100B03F069FF94EDA9
:104430000A1B53EC112B03F01BFD53EC182B03F05C
:104440005FFF94ED081B53EC112B03F011FD41ECC1
:10445000100B53EC182B51EC100B03F051FF94EDA3
:10446000061B53EC112B03F003FD53EC182B03F048
:1044700047FF94ED040B53EC102B03F0F9FC41ECD7
:10448000100B53EC182B51EC100B03F039FF94ED8B
:10449000021B53EC112B03F0EBFC53EC182B03F035
:1044A0002FFF94ED001B53EC112B03F0E1FCBDEC4E
:1044B000028B41EC100B70BD10B553EC102B51EC7E
:1044C000100B03F0D5FC41EC100B10BD10B553ECF4
:1044D000112B51EC100B03F0CBFC41EC100B10BD79
:1044E0009FED050B10B553EC102B51EC100B03F0A6
:1044F00073FD41EC100B10BD000000000000000037
:104500009FED050B10B553EC102B51EC100B03F085
:10451000F7FE41EC100B10BD000000000000001081
:10452000FEB506460D460024684600F01FFD002239
:104530009FED1B1A6B46012156F8227055F8220098
:10454000381A00D5404200EE100A03EB8200B8EEA4
:10455000C00AD0ED000A20EE010AF5EEC00AF1EE25
:1045600010FA0DD0C0EE201AB7EE000A0D4F31EE52
:10457000C00AB0EEC00A10EE100AB84207DC09E02B
:1045800010EE100A084F3844084FB84202D301FA1F
:1045900002F00443521C032ACEDB2046FEBD00007D
:1045A00000008037295C0F3E666666C19A99D90083
:1045B00010B541EC100BFFF797FC51EC100B10BD40
:1045C00008B560B120208DF8000028208DF801008A
:1045D00030208DF8020038208DF8030004E0A3227B
:1045E00004216846FBF7DEFF6A46042140F69E2060
:1045F00001F0E0FE01F0DAFA08BD00003EB5044625
:1046000002208DF80000CA208DF80100E3208DF80B
:10461000020009208DF803006A460421682001F099
:10462000C9FEA3208DF80000610609D5C0218DF8D0
:104630000110C8218DF80210C2218DF8031005E089
:104640008DF801008DF802008DF8030014F4C07F8E
:1046500009D0C4218DF80410CC218DF80510C62195
:104660008DF8061005E08DF804008DF805008DF832
:1046700006008DF808008DF807008DF809006A46DD
:104680000A2140F6A72001F095FEA0074FF0D805BB
:1046900003D020208DF8000001E08DF800506A461C
:1046A000012140F6B62001F085FEA00601D50120CB
:1046B00000E0002000F08EF814F4C07F1ED0E0056A
:1046C0000AD5B2208DF800008B208DF80100B620AD
:1046D0008DF802009B2009E0B0208DF800008020BA
:1046E0008DF80100B4208DF8020090208DF80300B1
:1046F0006A46042140F6A22001F05CFEE1074FF477
:104700000B6022D0F8218DF800106A46012101F0DB
:1047100051FEFA21072000F04DFB072000F018FBA6
:10472000012000F035FB642000F0F4FB4FF4FA7038
:1047300000F000FCC821254800F0D2FA282000F043
:10474000E7FA0A2000F0F4FA05E08DF800506A4616
:10475000012101F02FFEA00703D5D9208DF800001C
:1047600001E08DF800506A46012140F23D7001F0F1
:1047700021FE600701D5012000E0002000F048F88C
:10478000E00601D5012000E00020FFF719FF104DE1
:1047900044F00800688101F009FA0020A87360065F
:1047A00001D50620A87314F4C07F02D0A87B801D19
:1047B000A87314F0140F02D0A87B1030A873A007C0
:1047C00002D0A87B001DA87300203EBD09E3CA02E9
:1047D000D84B00200EB54FF4976310B106A107C95E
:1047E00001E008A207CA8DE807006A4609211846B9
:1047F00001F0E0FD0EBD0000B8AAB38DB4980D35F0
:104800005D000000B8AAAAAAB088C3C5C70000000E
:1048100008B560B1C0208DF80000C2208DF80100FD
:10482000C4208DF80200C6208DF8030004E08B221E
:1048300004216846FBF7B6FE6A46042140F698203C
:1048400001F0B8FD01F0B2F908BD0000C8234FF433
:104850008062024940F6F63001F03CB8588A000800
:104860002DE9FF4F89B01746DDE916520024564E58
:10487000884681462C80A246B07B694601F0FAF852
:104880004FF0FF3B18B158460DB0BDE8F08F70896E
:1048900010F0140F4ED0BDF800109DF8022049BA58
:1048A000090441EA02229DF803100A433A60BDF868
:1048B00004109DF8063049BA090441EA03219DF825
:1048C0000730121419437960BDF808309DF80A408A
:1048D0005BBA1B0443EA04239DF80B4009142343ED
:1048E000BB60BDF80C409DF80EC064BA240444EAD5
:1048F0000C2C9DF80F404CEA040C1024C7F80CC097
:104900001B144FEA2C4712FB02F211FB012113FB8F
:1049100003F217FB07221144A1F17061B1F1007F8E
:1049200004D901F043F9A5F800A0ACE7298841F4C7
:10493000807129804206694611D50A19A41D138881
:104940005BBAA8F8003053885BBAA8F802309288A6
:1049500052BAA8F804202A8842F008022A8010F4EB
:10496000C07F11D00A19A41D13885BBAA9F80030C2
:1049700053885BBAA9F80230928852BAA9F8042089
:104980002A8842F070022A80800716D00C44E07812
:1049900000F0C00500F03F016078C00706D0C808ED
:1049A00001F007013268491C02B1904760780007A6
:1049B00003D5716809B1A8098847FCF763FD0C9914
:1049C0000860002060E70000D84B00202DE9FF417F
:1049D000044603A800F046FEBDF80C00410CC303DA
:1049E00000BF2F48008900F0030254F8225042070C
:1049F00000D56D42C0F3C102860654F8222000D5CE
:104A00005242C0F38116C00554F8264000D56442D6
:104A1000A5FB0367E81700FB037005FB0100850099
:104A200045EA9670A2FB0367D51705FB037502FBE9
:104A30000152950045EA9672A4FB0367E51705FB52
:104A4000037304FB01318B0043EA9671030E8DF86A
:104A50000030030C8DF80130030A8DF802308DF818
:104A60000300100E8DF80400100C8DF80500100ADC
:104A70008DF80600080E8DF80800080C8DF8090066
:104A8000080A8DF80A008DF807208DF80B106A4689
:104A90000C214FF4257001F08DFC04B0BDE8F081CD
:104AA000D84B002030B5044613A285B007CA8DE864
:104AB00007004FF0FF35C82C16D8C820B0FBF4F122
:104AC000491E080A8DF80C008DF80D1003AA02216A
:104AD00040F2162001F06EFC30B96A460C2140F617
:104AE000C12001F067FC10B1284605B030BD054873
:104AF00084810020F9E70000FEF2ABC4AAF1DFDFF9
:104B0000BBAFDFDFD84B0020F8B53049098901F091
:104B1000030250F822404A0700D56442C1F3C102A3
:104B20008B0650F8222000D55242C1F3811350F871
:104B30002330C80500D55B42254984FB0140850030
:104B400045EA947082FB0142A40F44EA820483FB8D
:104B50000121950F45EA8105010E8DF80010010C29
:104B60008DF80110010A8DF802108DF803006A46D5
:104B700004214FF4747001F01DFC4FF0FF3688B92A
:104B8000200E8DF80000200C8DF80100200A8DF811
:104B900002008DF803406A4604214FF4757001F05D
:104BA00009FC08B13046F8BD280E8DF80000280C2D
:104BB0008DF80100280A8DF802008DF803506A462E
:104BC00004214FF4767001F0F5FBF8BDD84B0020BE
:104BD00009E3CA022DE9FF4104463CA004F00303A7
:104BE000006802903AA0006803903AA006683AA0D4
:104BF000056802A8C15C8DF80010C4F3C101425CD5
:104C00008DF80120C4F38112805C8DF8020003A8A6
:104C1000C35C8DF80430415C8DF80510805C8DF824
:104C200006006A46032140F2264001F0C3FB4FF024
:104C3000FF37E0BB01AA032140F22A4001F0BAFB92
:104C4000A8BBCDE9006560070BD59DF8000040F0DA
:104C500001008DF800009DF8040040F001008DF87F
:104C60000400A0060BD59DF8010040F001008DF86E
:104C700001009DF8050040F001008DF80500E005F9
:104C80000BD59DF8020040F001008DF802009DF860
:104C9000060040F001008DF806006A4603214FF43B
:104CA000886001F087FB10B901AA032100E004E04D
:104CB00040F2314001F07EFB18B1384604B0BDE847
:104CC000F081064804810020F8E700004CCD6C001C
:104CD0000CC92C003656760026466600D84B0020BC
:104CE0004FF47A7290FBF2F008B54843010E8DF84C
:104CF0000010010C8DF80110010A8DF802108DF8DA
:104D000003006A4604214FF4AE7001F053FB08BD66
:104D10000521B0FBF1F008B5010A8DF800108DF8FF
:104D200001006A4602214FF4AD7001F043FB08BD5B
:104D30000521B0FBF1F008B5010A8DF800108DF8DF
:104D400001006A4602214FF4AC7001F033FB08BD4C
:104D500008B500218DF80010C10702D030218DF870
:104D60000010810705D59DF8001041F00C018DF869
:104D70000010400705D59DF8000040F003008DF8B5
:104D800000006A4601214FF4A47001F013FB08BD36
:104D900008B560B1042800D90420401E8DF8000039
:104DA0006A46012140F24F1001F004FB08BD0120CA
:104DB000F3E7000070B504462DED028B82B040078A
:104DC0004FF0FF357ED0B1F5C86F7BD800EE101ADA
:104DD000B8EE400ADFED460A01A880EE208A00F016
:104DE00023FC9DF80400022806D0042810D00828CF
:104DF00035D0102874D13EE09FED3E0A28EE000A1F
:104E0000BCEEC00A10EE100A9FED3B0A82B20AE027
:104E10009FED3A0A28EE000ABCEEC00A10EE100A16
:104E20009FED370A82B228EE000A6E46BCEEC00A39
:104E300010EE100A81B2100A8DF800008DF80120E2
:104E4000080A8DF802008DF80310E00726D03246DC
:104E500002214FF4EA7001F0ADFA98BB17E09FED24
:104E6000290A28EE000ABCEEC00A10EE100A9FEDD7
:104E7000260A82B2D7E79FED250A28EE000ABCEE8B
:104E8000C00A10EE100A9FED220A82B2CBE7B21CD4
:104E900002214FF4927001F08DFA98B9A0070DD558
:104EA0006A4602214FF4EC7001F084FA50B9B21C4A
:104EB00002214FF4947001F07DFA18B9600714D5FF
:104EC0006A4600E00CE002214FF4EE7001F072FA45
:104ED00030B9B21C02214FF4967001F06BFA20B188
:104EE000284602B0BDEC028B70BD0020F9E700003F
:104EF0000000484300008046000040460000004695
:104F00000000C0450000804500004045000000450D
:104F10000000C0440521B0FBF1F008B5010A8DF88E
:104F200000108DF801006A4602214FF4EF7001F085
:104F300041FA08BD0521B0FBF1F008B5010A8DF872
:104F400000108DF801006A4602214FF4ED7001F067
:104F500031FA08BD82B0CDE9000121F00040019096
:104F60009DED000B02B051EC100B704710B586B0F0
:104F700004464FF0FF32042104A88DE807002848BA
:104F800001230D224068007841002648FCF744FBCD
:104F900010B1072006B010BD9DF810101C2000EACB
:104FA000D1029DF81310DFED200AC1F301131A435B
:104FB0008DF80C209DF81120C1F3810300EAD20284
:104FC0001A438DF80D209DF8122001F0030100EA2C
:104FD000D20008439FED151A9FED150A8DF80E00BB
:104FE000002103AA505C002804EB810002D080ED70
:104FF000001A09E0C0ED000A0CE000BFD0ED001A75
:1050000061EE801AC0ED001A535C5B1E13F0FF03C3
:105010005354F3D1491CC9B20329E3D30020B9E7A3
:105020009C00002018010020000000007B14AE3E10
:105030001D5A843F2DE9F04F87B0054602200DF13F
:105040000C0A4FF00109DFF818B4CDE900A08DF883
:105050000C904FF000084FF0FF368DF80D8002964F
:105060000C46DBF80400DBF80010174600784A7D98
:1050700041004B46FB48FCF7D1FB00287DD1C820FE
:10508000FCF7F6F800208DF80C00B046CDF800A033
:10509000CDE90198DBF800005E460123427CDBF895
:1050A000040000784100EF48FCF7B8FB002865D108
:1050B000401ECB46CDF800A0CDE901B07068316844
:1050C000D04600784A794100B1460123E548FCF713
:1050D000A5FB20B14FF0FF3007B0BDE8F08FDA46F6
:1050E0004FF0FF36CDF80080CDE901A6D9F80400D5
:1050F000D9F80010C34600784A7D4100C846012314
:10510000D848FCF78BFB0028B8D1B146CDF800B0E9
:10511000CDE901A9D8F80400D8F800105646007867
:105120008A7E41000123CF48FCF778FB002871D12B
:10513000CA46B146CDF800B0CDE9019AD8F80000D2
:10514000464601230279D8F8040000784100C5489A
:10515000FCF764FB00287DD10C208DF80C00D046B4
:10516000CDF800B0CDE901983068DA460279706870
:10517000007841000123BB4801E0A5E02BE0FCF7EB
:105180004DFB40BB0F20FCF773F8B06AD3460123F8
:10519000407A8DF80C00CDF800A0CDE90198306878
:1051A0008278706800784100AE48FCF737FB90B910
:1051B000B06ACA460123007A8DF80C00CDF800B021
:1051C000CDE9019830684278706800784100A548C0
:1051D000FCF724FB08B140467EE7B06A807A0FB145
:1051E00040F0E000CDE900BAC1468DF80C00CDF8E2
:1051F00008903068D84601238279706800784100B1
:105200009848FCF70BFB28B92FB1B06AC07A40F080
:10521000E00001E029E01820CDE9008A8DF80C00BB
:10522000CDF8089030680123C27970680078410099
:105230008C48FCF7F3FAC0B917B1C820FCF718F88E
:10524000402057468DF80C00CDF80080CDE901795B
:10525000C24600E073E0306801230279706800788C
:1052600041008048FCF7DAFA08B1484634E7CDE956
:1052700000A778208DF80C00CDF808907068316890
:10528000CB4600784A794100B04601237548FCF7C7
:10529000C5FA08B158461FE73220FBF7E9FF4FF087
:1052A00000098DF80C90CDF800A0CDE9017BD8F86D
:1052B0000400D8F800105E4600784A7941000123C6
:1052C0006848FCF7ABFA08B1304605E7022003AAAC
:1052D000CDE900200296D8F80400D8F80010B246B4
:1052E00000780A7B410001235E48FCF795F930BB4A
:1052F000BDF80C004FF00C0B40BAB0FBFBF0C5F84A
:105300000890C5F80490C5F80090C4F80890C4F857
:105310000490C6B20027C4F800903EE003AACDE98D
:10532000002BCDF808A0D8F80400D8F8001001230D
:1053300000784A7B41004B48FCF76EF908B15046B3
:10534000CAE6BDF80C00236840BA02B2BDF80E00F0
:105350001A4440BA01B2BDF810002260626840BA37
:1053600011446160A16800B20844A060BDF8120059
:105370002B6840BA01B2BDF81400BDF816201944DC
:10538000296040BA696800B20844686052BAA868E7
:1053900012B210447F1CFFB2A860B742BED3286887
:1053A0008322C117090441EA104100040023FBF7DE
:1053B00032F832460023FBF72EF828606868832213
:1053C000C117090441EA104100040023FBF723F848
:1053D00032460023FBF71FF86860A8688322C117D4
:1053E000090441EA104100040023FBF714F8324697
:1053F0000023FBF710F8A86020684FF40065C11780
:10540000090441EA104100042A460023FBF703F88F
:1054100032460023FAF7FFFF206060682A46C11772
:10542000090441EA104100040023FAF7F4FF324670
:105430000023FAF7F0FF6060A0682A46C11709044C
:1054400041EA104100040023FAF7E5FF3246002349
:10545000FAF7E1FFA060002806DDA0F5803005E046
:105460009C0000201801002000F58030A060002082
:1054700032E600002DE9FF410E460746002403AD49
:10548000601E03210095CDE901102F4801230D2254
:105490004068007841002D48FCF7BEF818B107209D
:1054A00004B0BDE8F0819DF80C009FED291A00F0D2
:1054B0001F008DF80C009DF80D0000F01F008DF806
:1054C0000D009DF80E0000F01F008DF80E0000206A
:1054D0005FF0010257F8201056F82030C91A00D5A5
:1054E000494200EE101A295CB8EEC00A60EE010ACB
:1054F000D1B1B3EE090ADFED171A01E020EE210A5F
:10550000C9B2491E11F0FF012954F7D1C0EE801A2B
:10551000B7EE000A104B31EEC00AB0EEC00A10EE32
:10552000101A994207DC09E010EE901A0B4B19444F
:10553000B1F1D97F02D902FA00F10C43401C0328D3
:10554000C8DB2046ACE700009C00002018010020CA
:105550000000803754E3853F295C0F3E0000E0BE29
:1055600090F90010002902DD4FF00000704702DAC8
:105570004FF00400704790F90110002902DD4FF050
:105580000100704702DA4FF00500704790F9020001
:10559000002802DD4FF00200704702DA4FF00600EB
:1055A00070474FF007007047FCF70CFAFDF738FF23
:1055B000FDF7C4FCFDF7E0FCFDF7FEFCFDF77AFC0F
:1055C000FDF716FD00F03EFFFDF796FC00F04CFFE6
:1055D000FEE700002DE9F041124C20F0010100250A
:1055E00094F8240010B10020BDE8F081A07A4FF0BB
:1055F000FF3668B10840277C2074884200D03546C9
:1056000041B1012001F026FC00F0D0FA38B1277436
:105610003046E9E7207D00B1012001F01BFC28465F
:10562000E2E700009C0000200D494A7A42B1012ABD
:1056300008D0022A0FD0032A0FD04FF0FF30704756
:10564000022200E004220270C97C11B11106C90DCA
:105650000170002070470822F5E71022F3E70000F0
:105660009C0000200F494A7A42B1012A09D0022A3F
:1056700011D0032A12D04FF0FF3070474FF4804210
:1056800001E041F69C720280C97C11B1C2F34E0167
:105690000180002070474FF48052F4E74FF400621D
:1056A000F1E700009C0000200B49097A39B101297B
:1056B00007D002290AD003290BD0002103E0FA21E8
:1056C00001E04FF4FA710180002070474FF47A71C5
:1056D000F9E74FF4FA61F6E79C0000200D49097ADA
:1056E00041B1012909D002290DD003290ED04FF074
:1056F000FF3070479FED080A01E09FED080A80ED3A
:10570000000A002070479FED060AF8E79FED050AA2
:10571000F5E700009C0000200000034300008342E6
:1057200033330342333383410C49C97A072913D2F7
:10573000DFE801F01204060A0C0E1000BC2100E0A4
:1057400062210180002070472A21FAE71421F8E73E
:105750000A21F6E70521F4E70021F2E79C0000208A
:10576000054991F8242012B14FF0FF307047C989E4
:1057700001800020704700009C0000202DE9F041CE
:1057800086B080208DF80C000DF10C084FF0FF372B
:10579000012640464D4C8DE8C10020683346427DCD
:1057A0006068007841004A48FCF738F8002838D192
:1057B0006420FBF75DFD00258DF80C50CDF80080CE
:1057C000CDE9016720680123427D606800784100CF
:1057D0003F48FCF723F800286ED10621CDF8008061
:1057E000CDE9011720680123427E606800784100FE
:1057F0003748FBF711FF00285ED19DF811009DF896
:105800000F10C007400F01F0010140EA41009DF870
:105810000D1001F00101084304D0012836D0022800
:1058200015D049E0CDF80080CDE90167206801235B
:10583000C2786068007841002548FBF7EDFED8BBD0
:105840009DF80C0010F00F0036D004281ED0E5742F
:10585000FF2004F80A0F4FF6FF7104F8020C04F859
:10586000010C6070A180A0712072A670267665760A
:10587000E572A572E56025616561A576E576A5838B
:105880004FF4FA6000F01EFCB0B901E0E674DFE707
:10589000022000F0EBFA78B92A2000F091FC58B908
:1058A000322000F0CBFC38B90020FFF793FE18B986
:1058B000002000F019FB18B1384606B0BDE8F081B1
:1058C000002000F007FD0020F7E700009C0000200A
:1058D000180100202DE9FF4FDFF8AC90064689B093
:1058E00099F82500154688464FF0FF37C0B9B8F142
:1058F000000F15D0002423E0301B102800DD1020FD
:105900001FFA80FB08EB040292465946204600F03D
:1059100051FD28B903AA5946204600F00DF918B1E7
:1059200038460DB0BDE8F08F50465A4603A9FAF745
:1059300096FD10B16FF00100F3E704EB0B0084B2A9
:10594000B442D9D3280A8DF81C00022007A9CDE95A
:1059500000108DF81D500297D9F800003D464C46C6
:10596000427FD9F804000123007841000748FBF783
:1059700055FF08B12846D4E7012084F825000C988B
:10598000E0840020CDE700009C00002018010020EA
:105990002DE9FF5F04464FF0FF36282858D8002530
:1059A000DFF8C8800DF10C0B4FF0070A02277CB11D
:1059B000012000F0C9FB20208DF80C004FF00109F8
:1059C000012C1FD0052C20D88DF80D90052026E045
:1059D000002000F0B9FB8DF80C508DF80DA0CDF82B
:1059E00000B0CDE90176D8F8000044460123427D9D
:1059F000D8F80400007841001D48FBF70FFF38BBC2
:105A0000257531E08DF80D50E0E7142C03D88DF8A2
:105A10000D700A2003E003208DF80D00142000F023
:105A2000CFFB9DF80D10CDF800B00AEB81108DF87A
:105A30000D00CDE90176D8F8000044460123427DEF
:105A4000D8F80400007841000948FBF7E7FE18B1D8
:105A5000304604B0BDE8F09F0820A072257384F89A
:105A600014900020FFF7B6FD0020F2E79C00002014
:105A7000180100202DE9FF472D4C8A46074694F86F
:105A8000241090464FF0FF30002937D0A17A00292A
:105A900034D005460DF10C09022148468DE823005B
:105AA00020680123027B6068007841002148FBF7F1
:105AB000B3FDA0BBBDF80C0046BABE4203D2002124
:105AC00088F800102BE060684188B6EB510F18D9B8
:105AD0000122CDF80090CDE901252168007801234D
